XX101501828796040020-05355903-5MARCHETTI NOBLE AMERICO                 19310125LE 05355903XXXA000M300000000DESC2007011100000000XX010000      00000000                   H. IRIGOYEN Y AYACUCHO        0000-00000             00000000021130015     429679          000000000000  000000000000             0000000568632             0000000000000000                                       0000000000000000                                       0000000000000000                          0000000000000000
XX101506767796050020-04624229-8SALINAS JUAN CARLOS                     19481023DNI04624229XXXA000M200000000REPA2015042800000000XX010000      00000000                   LA RIOJA                      0049000000             0000000002113005802983497003          000000000000  000000000000             0000000568632             0000000000000000                                       0000000000000000                                       0000000000000000                          0000000000000000
XX101503787676020020-05381328-4ANTONINI ALDO NORBERTO                  19421126LE 05381328XXXA000M200000000REPA2008100800000000XX010000      00000000                   9 DE JULIO                    0089400000             0000000002113001502983422113          000000000000  000000000000             0000000568632             0000000000000000                                       0000000000000000                                       0000000000000000                          0000000000000000
XX101501403757020027-01434548-0BROCCHETTO ANA VALENTINA                19320402LC 01434548XXXA000F200000000DESC2006081700000000XX010000      00000000                   RECONQUISTA                   0065000000             00000000021130015     429594          000000000000  000000000000             0000000568632             0000000000000000                                       0000000000000000                                       0000000000000000                          0000000000000000
XX101508326262060027-03709438-8PEDERSEN ERNA                           19380309LC 03709438XXXA000F200000000REPA2001032900000000XX010000      00000000                   17                            0192500000             00000000021130023     15644358        000000000000  000000000000             0000000568632             0000000000000000                                       0000000000000000                                       0000000000000000                          0000000000000000

