XX101501828796040020-05355903-5MARCHETTI NOBLE AMERICO                 19310125LE 05355903XXXA000M300000000DESC2007011100000000XX010000      00000000                   H. IRIGOYEN Y AYACUCHO        0000-00000             00000000021130015     429679          000000000000  000000000000             0000000568632             0000000000000000                                       0000000000000000                                       0000000000000000                          0000000000000000
XX101506767796050020-04624229-8SALINAS JUAN CARLOS                     19481023DNI04624229XXXA000M200000000REPA2015042800000000XX010000      00000000                   LA RIOJA                      0049000000             0000000002113005802983497003          000000000000  000000000000             0000000568632             0000000000000000                                       0000000000000000                                       0000000000000000                          0000000000000000
XX101503787676020020-05381328-4ANTONINI ALDO NORBERTO                  19421126LE 05381328XXXA000M200000000REPA2008100800000000XX010000      00000000                   9 DE JULIO                    0089400000             0000000002113001502983422113          000000000000  000000000000             0000000568632             0000000000000000                                       0000000000000000                                       0000000000000000                          0000000000000000
XX101501403757020027-01434548-0BROCCHETTO ANA VALENTINA                19320402LC 01434548XXXA000F200000000DESC2006081700000000XX010000      00000000                   RECONQUISTA                   0065000000             00000000021130015     429594          000000000000  000000000000             0000000568632             0000000000000000                                       0000000000000000                                       0000000000000000                          0000000000000000
XX101508326262060027-03709438-8PEDERSEN ERNA                           19380309LC 03709438XXXA000F200000000REPA2001032900000000XX010000      00000000                   17                            0192500000             00000000021130023     15644358        000000000000  000000000000             0000000568632             0000000000000000                                       0000000000000000                                       0000000000000000                          0000000000000000
XX101503202690070020-05375923-9ARENAS OSVALDO ARIEL                    19400110DNI05375923XXXA000M200000000REPA2008092500000000XX010000      00000000                   MORENO                        0104500000             00000000021130015     433140          000000000000  000000000000             0000000568632             0000000000000000                                       0000000000000000                                       0000000000000000                          0000000000000000
XX101501258515040023-03179258-4CICHETTI MARIA ESTHER                   19330802LC 03179258XXXA000F200000000DESC2007041000000000XX010000      00000000                   SOLIS                         0038700000             00000000021130015     428058          000000000000  000000000000             0000000568632             0000000000000000                                       0000000000000000                                       0000000000000000                          0000000000000000
XX101501301127090027-04944491-0DERAMO MARTA ANGELA                     19441201LC 04944491XXXA000F600000000PROR2009010100000000XX010000      00000000                   BRANDSEN                      0027200000             00000000021130015     426024          000000000000  000000000000             0000000568632             0000000000000000                                       0000000000000000                                       0000000000000000                          0000000000000000
XX101505057992070127-06201398-8LEPEZ ELSA LEONOR                       19500705DNI06201398XXXA000F200000000REPA2015040900000000XX010000      00000000                   ALSINA                        0070400000             000000000211300150298315619971        000000000000  000000000000             0000000568632             0000000000000000                                       0000000000000000                                       0000000000000000                          0000000000000000
XX101506782453030227-41805652-0CAPRISTO MARIANA BELEN                  19990312DNI41805652XXXA000F120200630REPA2015041400000000XX010000      00000000                   URQUIZA                       0034000000             0000000002113001502983431046          000000000000  000000000000             0000000568632             0000000000000000                                       0000000000000000                                       0000000000000000                          0000000000000000
XX301555420655170020-50481547-2SAYAGO ALVAREZ JERONIMO                 20100710DNI50481547XXXA000M120280710REPA2013041900000000XX010000      00000000                   MAGALLANES                    0074500000             00000000021130015                     000000000000  000000000000             0000000568632             0000000000000000                                       0000000000000000                                       0000000000000000                          0000000000000000
XX101508351726090020-05363204-2LEONI AMERICO ELIO                      19340610LE 05363204XXXA000M200000000REPA2000022800000000XX010000      00000000                   VIAMONTE                      0038400000             00000000021130015                     000000000000  000000000000             0000000568632             0000000000000000                                       0000000000000000                                       0000000000000000                          0000000000000000
XX101509781182000020-10458242-8ELIAS JOSE LUIS                         19520709DNI10458242XXXA000M200000000REPA2017121800000000XX010000      00000000                   MAR DEL PLATA                 0012100000             0000000002113001502983428650          000000000000  000000000000             0000000568632             0000000000000000                                       0000000000000000                                       0000000000000000                          0000000000000000
XX100809349574080027-03179293-8PERNIGOTTI ANGELICA                     19330710LC 03179293XXXA000F400000000REPA1989120100000000XX010000      00000000                   LAVALLE                       0105400000             00000000021130015     422821          000000000000  000000000000             0000000568632             0000000000000000                                       0000000000000000                                       0000000000000000                          0000000000000000
XX101504311043030027-05998312-7RE STELLA MARIS                         19490205LC 05998312XXXA000F200000000REPA2010072600000000XX010000      00000000                   QUINTANA                      0017300000             00000000021130015     423655          000000000000  000000000000             0000000568632             0000000000000000                                       0000000000000000                                       0000000000000000                          0000000000000000
XX101508120852050027-03858881-3VERONES ALBINA ROSA                     19281007LC 03858881XXXA000F200000000REPA1997010100000000XX010000      00000000                   RECONQUISTA                   0032400000             00000000021130015                     000000000000  000000000000             0000000568632             0000000000000000                                       0000000000000000                                       0000000000000000                          0000000000000000
XX301159113442010027-03823692-5VALENZUELA ROSA ESTELA                  19250926LC 03823692XXXA000F300000000REPA1986070100000000XX010000      00000000                   DEAN FUNES                    0084700000             00000000021130015     423220          000000000000  000000000000             0000000568632             0000000000000000                                       0000000000000000                                       0000000000000000                          0000000000000000
XX101503821695070020-05383022-7PALACIO DEMECIO DELMIDIO                19430407DNI05383022XXXA000M200000000REPA2008111200000000XX010000      00000000                   BERNARDO DE IRIGOYEN          0022600000             00000000021130015     425574          000000000000  000000000000             0000000568632             0000000000000000                                       0000000000000000                                       0000000000000000                          0000000000000000
XX301558937018090027-03875501-9CABELLO MABEL LIBERTAD                  19400401LC 03875501XXXA000F300000000REPA2004110900000000XX010000      00000000                   SAENZ PEÑA                    0070100000             00000000021130015     15641130        000000000000  000000000000             0000000568632             0000000000000000                                       0000000000000000                                       0000000000000000                          0000000000000000
XX101506446348000027-10216606-5COSTEN BEATRIZ SUSANA                   19520403DNI10216606XXXA000F200000000REPA2015010500000000XX010000      00000000                   LAVALLE                       0083500000             0000000002113001502983433570          000000000000  000000000000             0000000568632             0000000000000000                                       0000000000000000                                       0000000000000000                          0000000000000000
XX101501217565090023-05376058-9ZAMBOTTI HUGO FELIX                     19400401DNI05376058XXXA000M200000000DESC2006032800000000XX010000      00000000                   BDO DE IRIGOYEN               0054900000             00000000021130015     429810          000000000000  000000000000             0000000568632             0000000000000000                                       0000000000000000                                       0000000000000000                          0000000000000000
XX101500692155020120-12591027-1MORRESI EDUARDO RUBEN                   19560812DNI12591027XXXA000M200000000REPA2019062400000000XX010000      00000000                   LAMADRID                      0087000000             00000000021130015                     000000000000  000000000000             0000000568632             0000000000000000                                       0000000000000000                                       0000000000000000                          0000000000000000
XX101505715033090027-10458326-7PEREYRA SUSANA RAMONA                   19520511DNI10458326XXXA000F200000000REPA2013031500000000XX010000      00000000                   SANTA FE                      0116500000             0000000002113001502983430997          000000000000  000000000000             0000000568632             0000000000000000                                       0000000000000000                                       0000000000000000                          0000000000000000
XX221508413382090020-11843757-9CERIANI ATILIO RICARDO                  19580121DNI11843757XXXA000M100000000SIEM2009010100000000XX010000      00000000                   FRENCH                        0092500000             0000000002113001502982480643          000000000000  000000000000             0000000568632             0000000000000000                                       0000000000000000                                       0000000000000000                          0000000000000000
XX101503527814040027-05388071-7ALVAREZ MIRTA SUSANA                    19460402LC 05388071XXXA000F200000000REPA2010080900000000XX010000      00000000                   RIVADAVIA                     0054500000             00000000021130015     427651          000000000000  000000000000             0000000568632             0000000000000000                                       0000000000000000                                       0000000000000000                          0000000000000000
XX101504714829050023-05998350-4TORRES NILDA SOFIA                      19490430LC 05998350XXXA000F300000000REPA2010091300000000XX010000      00000000                   SARMIENTO                     0073400000             00000000021130015     15501371        000000000000  000000000000             0000000568632             0000000000000000                                       0000000000000000                                       0000000000000000                          0000000000000000
XX301459045658030023-14174313-9AVILA RUBEN ESTEBAN                     19600927DNI14174313XXXA000M300000000REPA2018072700000000XX010000      00000000                   LAS MAGNOLIAS                 0126700000             00000000021130015                     000000000000  000000000000             0000000568632             0000000000000000                                       0000000000000000                                       0000000000000000                          0000000000000000
XX101500692155020027-12591410-7LUNA IRIS VIOLETA                       19561218DNI12591410XXXA000F200000000REPA2017062900000000XX010000      00000000                   LAMADRID                      0087000000             00000000021130015                     000000000000  000000000000             0000000568632             0000000000000000                                       0000000000000000                                       0000000000000000                          0000000000000000
XX101500982819080120-11340499-0VAN DER VELDE LUCAS                     19540904DNI11340499XXXA000M200000000REPA2019053100000000XX010000      00000000                   MORENO                        0230500000             00000000021130015                     000000000000  000000000000             0000000568632             0000000000000000                                       0000000000000000                                       0000000000000000                          0000000000000000
XX101505789834070027-10216672-3GUARNIERI ROSA SUSANA                   19520429DNI10216672XXXA000F700000000REPA2013062500000000XX010000      00000000                   DORREGO                       0109700000             0000000002113001502983431629          000000000000  000000000000             0000000568632             0000000000000000                                       0000000000000000                                       0000000000000000                          0000000000000000
XX101509957757080027-13375291-4ELUSTONDO ALICIA BEATRIZ                19570512DNI13375291XXXA000F200000000REPA2018041700000000XX010000      00000000                   TIERRA DEL FUEGO              0084000000             00000000021130015                     000000000000  000000000000             0000000568632             0000000000000000                                       0000000000000000                                       0000000000000000                          0000000000000000
XX101501368863020027-04738551-8SULMAESTER ELSA SUSANA                  19430920LC 04738551XXXA000F200000000DESC2006090700000000XX010000      00000000                   RIVADAVIA                     0016500000             00000000021130112                     000000000000  000000000000             0000000568632             0000000000000000                                       0000000000000000                                       0000000000000000                          0000000000000000
XX101501639278090027-03492390-1CAVALCA NELIDA ESTHER                   19370508LC 03492390XXXA000F200000000DESC2007042300000000XX010000      00000000                   DEAN FUNES                    0075600000             00000000021130015     431281          000000000000  000000000000             0000000568632             0000000000000000                                       0000000000000000                                       0000000000000000                          0000000000000000
XX301554659695170020-17465415-9CHOPPI ALFREDO RODOLFO                  19651114DNI17465415XXXA000M100000000REPA2010101900000000XX010000      00000000                   DOMINGO VAZQUEZ               0057400000             00000000021130015     423381          000000000000  000000000000             0000000568632             0000000000000000                                       0000000000000000                                       0000000000000000                          0000000000000000
XX301558189146020027-11599138-3GONZALEZ ANA MARIA                      19530418DNI11599138XXXA000F300000000REPA1998040100000000XX010000      00000000                   FRAY LUIS BELTRAN             0085600000             00000000021130015                     000000000000  000000000000             0000000568632             0000000000000000                                       0000000000000000                                       0000000000000000                          0000000000000000
XX101503549721010027-05388105-5DISALLO ELSA BEATRIZ                    19460621DNI05388105XXXA000F200000000REPA2012060500000000XX010000      00000000                   CHACABUCO                     0056400000             00000000021130015     429519          000000000000  000000000000             0000000568632             0000000000000000                                       0000000000000000                                       0000000000000000                          0000000000000000
XX101508839758010027-04639793-8GALLEGO DELIA                           19431231LC 04639793XXXA000F600000000DESC2004030200000000XX010000      00000000                   SOLIS                         0016100000             00000000021130015     424745          000000000000  000000000000             0000000568632             0000000000000000                                       0000000000000000                                       0000000000000000                          0000000000000000
XX101503710274000027-05639333-7CARIONI LETICIA OFELIA                  19480403LC 05639333XXXA000F200000000REPA2008073100000000XX010000      00000000                   SANTA FE                      0103500000             00000000021130015     426528          000000000000  000000000000             0000000568632             0000000000000000                                       0000000000000000                                       0000000000000000                          0000000000000000
XX301555514131110027-12155028-3SANTIAGO GRACIELA MABEL                 19551108DNI12155028XXXA000F100000000REPA2014091800000000XX010000      00000000                   1810                          0087500000             0000000002113001502983425993          000000000000  000000000000             0000000568632             0000000000000000                                       0000000000000000                                       0000000000000000                          0000000000000000
XX301559111051050027-03859237-3GARCIA ESTHER INOCENCIA                 19281228DNI03859237XXXA000F300000000DESC2002060600000000XX010000      00000000                   PRIMERA JUNTA                 0011500000             00000000021130015     422037          000000000000  000000000000             0000000568632             0000000000000000                                       0000000000000000                                       0000000000000000                          0000000000000000
XX101501361507040027-04639742-3RODRIGUEZ LIDIA ANGELICA                19430719DNI04639742XXXA000F300000000DESC2006071300000000XX010000      00000000                   QUINTANA                      0034200000             00000000021130015     428118          000000000000  000000000000             0000000568632             0000000000000000                                       0000000000000000                                       0000000000000000                          0000000000000000
XX101508833366010020-05372830-9CAPARROS OMAR SEGUNDO                   19381201LE 05372830XXXA000M200000000REPA2004030900000000XX010000      00000000                   BTO. MACHADO                  0015000000             00000000021130015     426679          000000000000  000000000000             0000000568632             0000000000000000                                       0000000000000000                                       0000000000000000                          0000000000000000
XX301558906275020027-03693063-8GOROSITO TERESITA BENILDE               19370904LC 03693063XXXA000F300000000DESC2004082700000000XX010000      00000000                   PUEYRREDON                    0036800000             00000000021130015     424695          000000000000  000000000000             0000000568632             0000000000000000                                       0000000000000000                                       0000000000000000                          0000000000000000
XX101508801672060027-04501598-5ANTONINI ANA MARIA                      19430410DNI04501598XXXA000F200000000REPA2011072100000000XX010000      00000000                   ISTILART                      0033100000             00000000021130015                     000000000000  000000000000             0000000568632             0000000000000000                                       0000000000000000                                       0000000000000000                          0000000000000000
XX101501610813010027-03773374-7BURGUEÑO MARIA ADELMA                   19381204LC 03773374XXXA000F200000000DESC2006122100000000XX010000      00000000                   CALLE 20                      0026300000             00000000021130023     02982-495374    000000000000  000000000000             0000000568632             0000000000000000                                       0000000000000000                                       0000000000000000                          0000000000000000
XX101503700034000023-05205564-4MOLIO MARIA CRISTINA                    19460405LC 05205564XXXA000F200000000REPA2008071600000000XX010000      00000000                   LAMADRID                      0066500000             00000000021130015     431954          000000000000  000000000000             0000000568632             0000000000000000                                       0000000000000000                                       0000000000000000                          0000000000000000
XX301153254238050027-01434527-8DE FRANCESCO CELINA CARMEN              19320612DNI01434527XXXA000F300000000REPA1983110100000000XX010000      00000000                   AZCUENAGA                     0004300000             00000000021130015                     000000000000  000000000000             0000000568632             0000000000000000                                       0000000000000000                                       0000000000000000                          0000000000000000
XX101508885418050027-04639659-1ALCALA DORA AMELIA                      19431018LC 04639659XXXA000F200000000REPA2004062300000000XX010000      00000000                   AV. SAN MARTIN                0145500000             00000000021130015     431513          000000000000  000000000000             0000000568632             0000000000000000                                       0000000000000000                                       0000000000000000                          0000000000000000
XX101508822822090020-04276857-0PODESTA JUAN JOSE                       19380814LE 04276857XXXA000M200000000REPA2004062300000000XX010000      00000000                   HUMBERTO PRIMO                0038200000             00000000021130015     425524          000000000000  000000000000             0000000568632             0000000000000000                                       0000000000000000                                       0000000000000000                          0000000000000000
XX101502269981070027-03709506-6NOEL ELDA AMELIA                        19380528DNI03709506XXXA000F200000000REPA2008032700000000XX010000      00000000                   SOLIS                         0039700000             0000000002113001502983433385          000000000000  000000000000             0000000568632             0000000000000000                                       0000000000000000                                       0000000000000000                          0000000000000000
XX301550388371050027-03236877-3VILLALBA ELDA MARIA                     19340811DNI03236877XXXA000F300000000REPA1997030100000000XX010000      00000000                   MAIPU                         0099700000             00000000021130015                     000000000000  000000000000             0000000568632             0000000000000000                                       0000000000000000                                       0000000000000000                          0000000000000000
XX101507867048060027-11599250-9MARINO NORMA BEATRIZ                    19550412DNI11599250XXXA000F200000000REPA2016103100000000XX010000      00000000                   SAN MARTIN                    0053000000             000000000211300150298315410183        000000000000  000000000000             0000000568632             0000000000000000                                       0000000000000000                                       0000000000000000                          0000000000000000
XX101303212636000020-05364849-6MEDINA JUAN CARLOS                      19350523DNI05364849XXXA000M200000000REPA1981100100000000XX010000      00000000                   BROWN                         0047900000             00000000021130015     425221          000000000000  000000000000             0000000568632             0000000000000000                                       0000000000000000                                       0000000000000000                          0000000000000000
XX101504834009000027-05639147-4RUIZ DIAZ ANA MARIA                     19471211DNI05639147XXXA000F500000000REPA2011010400000000XX010000      00000000                   SEBASTIAN COSTA               0033000000             00000000021130015                     000000000000  000000000000             0000000568632             0000000000000000                                       0000000000000000                                       0000000000000000                          0000000000000000
XX101505916903050020-04623099-0DAMBORIANA NESTOR LORENZO               19471107DNI04623099XXXA000M200000000REPA2015033100000000XX010000      00000000                   BOLIVIA                       0000100000             000000000211300150298315554376        000000000000  000000000000             0000000568632             0000000000000000                                       0000000000000000                                       0000000000000000                          0000000000000000
XX101502312314030027-03856243-1LUCCINI MARIA TERESA                    19340920LC 03856243XXXA000F200000000DESC2007061200000000XX010000      00000000                   INDEPENDENCIA                 0034400000             00000000021130058                     000000000000  000000000000             0000000568632             0000000000000000                                       0000000000000000                                       0000000000000000                          0000000000000000
XX101508871149000020-05368699-1ORTEGA HUGO ROQUE                       19370805DNI05368699XXXA000M200000000DESC2004073000000000XX010000      00000000                   ESTRADA                       0084400000             00000000021130015                     000000000000  000000000000             0000000568632             0000000000000000                                       0000000000000000                                       0000000000000000                          0000000000000000
XX101100535543011620-38291764-3CORTARI EZEQUIEL                        19950405DNI38291764XXXA000M100000000REPA2016081200000000XX010000      00000000                   SAENZ PEA                     0033600000             00000000021130015     429579          000000000000  000000000000             0000000568632             0000000000000000                                       0000000000000000                                       0000000000000000                          0000000000000000
XX101503061247050027-04501414-8NAVARRE MARIA CRISTINA                  19420819LC 04501414XXXA000F200000000DESC2007110500000000XX010000      00000000                   SUIPACHA                      0020500000             00000000021130015     423046          000000000000  000000000000             0000000568632             0000000000000000                                       0000000000000000                                       0000000000000000                          0000000000000000
XX101501654860010027-04087821-7JURE MARIA DEL CARMEN                   19410502LC 04087821XXXA000F300000000REPA2009102100000000XX010000      00000000                   LEON                          0054700000             00000000021130015     426622          000000000000  000000000000             0000000568632             0000000000000000                                       0000000000000000                                       0000000000000000                          0000000000000000
XX101502407834080023-04383931-4IRIGOIN MAGDALENA                       19390124DNI04383931XXXA000F200000000DESC2008011500000000XX010000      00000000                   LIBERTAD                      0037600000             00000000021130015     424636          000000000000  000000000000             0000000568632             0000000000000000                                       0000000000000000                                       0000000000000000                          0000000000000000
XX101504011216010027-05901641-0FAGOAGA MARIA ISABEL                    19480916LC 05901641XXXA000F200000000REPA2009022000000000XX010000      00000000                   CERRITO                       0016000000             00000000021130015     433418          000000000000  000000000000             0000000568632             0000000000000000                                       0000000000000000                                       0000000000000000                          0000000000000000
XX101501291217050027-01399436-1FLECHA TERESA NELIDA                    19340307DNI01399436XXXA000F300000000REPA2008080600000000XX010000      00000000                   RODRIGUEZ PEÑA                0113500000             00000000021130015     15645507        000000000000  000000000000             0000000568632             0000000000000000                                       0000000000000000                                       0000000000000000                          0000000000000000
XX101501610612080027-04501503-9CHIQUETTI LAURA MARIA                   19430510LC 04501503XXXA000F200000000DESC2006101700000000XX010000      00000000                   ALSINA                        0093700000             00000000021130015     420335          000000000000  000000000000             0000000568632             0000000000000000                                       0000000000000000                                       0000000000000000                          0000000000000000
XX101508385771010023-05364556-9FLOREZ RAMON JUAN CARLOS                19350128LE 05364556XXXA000M200000000DESC2000101000000000XX010000      00000000                   ESTRADA                       0048500000             00000000021130015                     000000000000  000000000000             0000000568632             0000000000000000                                       0000000000000000                                       0000000000000000                          0000000000000000
XX101501766694090027-04087780-6JAURETCHE ALBA ESTHER                   19410522LC 04087780XXXA000F200000000DESC2006112900000000XX010000      00000000                   25 DE MAYO                    0124200000             00000000021130015     428247          000000000000  000000000000             0000000568632             0000000000000000                                       0000000000000000                                       0000000000000000                          0000000000000000
XX301558243774060027-04501502-0AMADO IRMA NORA                         19421121DNI04501502XXXA000F300000000REPA1999030100000000XX010000      00000000                   BUCHARD                       0054500000             00000000021130015     430525          000000000000  000000000000             0000000568632             0000000000000000                                       0000000000000000                                       0000000000000000                          0000000000000000
XX101504085565010027-04988778-2FEDERIZZI MARIA DEL CARMEN              19481126DNI04988778XXXA000F200000000REPA2010081700000000XX010000      00000000                   VIAMONTE                      0052900000             00000000021130015     02921-401117    000000000000  000000000000             0000000568632             0000000000000000                                       0000000000000000                                       0000000000000000                          0000000000000000
XX101503617195020027-05388134-9LANTERO ELBA SUSANA                     19460903LC 05388134XXXA000F200000000REPA2008051600000000XX010000      00000000                   SAAVEDRA                      0143200000             00000000021130015     432760          000000000000  000000000000             0000000568632             0000000000000000                                       0000000000000000                                       0000000000000000                          0000000000000000
XX101501060083060027-03492289-1CARRERA MARIA ELISA                     19370206LC 03492289XXXA000F200000000DESC2005092300000000XX010000      00000000                   ALBERAI                       0034400000             00000000021130015                     000000000000  000000000000             0000000568632             0000000000000000                                       0000000000000000                                       0000000000000000                          0000000000000000
XX301152179866090027-01432340-1BARCALA BURGUENO ZUM                    19311101LC 01432340XXXA000F300000000REPA1979110100000000XX010000      00000000                   SAENZ PENA                    0048000000             00000000021130015                     000000000000  000000000000             0000000568632             0000000000000000                                       0000000000000000                                       0000000000000000                          0000000000000000
XX101501766853000023-04639632-4DOLAGARAY BERTA IRMA                    19430619LC 04639632XXXA000F200000000DESC2006111700000000XX010000      00000000                   SARGENTO CABRAL               0068400000             00000000021130015     429360          000000000000  000000000000             0000000568632             0000000000000000                                       0000000000000000                                       0000000000000000                          0000000000000000
XX101503248647050020-17173452-6NICKEL EDGARDO OSVALDO                  19390108DNI17173452XXXA000M200000000DESC2007110200000000XX010000      00000000                   L. V. LOPEZ                   0097400000             00000000021130015     429622          000000000000  000000000000             0000000568632             0000000000000000                                       0000000000000000                                       0000000000000000                          0000000000000000
XX100909618471080027-01195479-6LAGAMMA LIDIA ESTELA                    19320518LC 01195479XXXA000F200000000REPA1993110100000000XX010000      00000000                   CONSTITUYENTES                0012500000             00000000021130015                     000000000000  000000000000             0000000568632             0000000000000000                                       0000000000000000                                       0000000000000000                          0000000000000000
XX301551298519040027-11043615-2GALLARDO ELSA MERCEDEDS                 19530925DNI11043615XXXA000F300000000DESC2006111400000000XX010000      00000000                   BOLIVAR                       0096400000             00000000021130015     15524253        000000000000  000000000000             0000000568632             0000000000000000                                       0000000000000000                                       0000000000000000                          0000000000000000
XX101501751176030027-01444166-8BERNARDI MARIA NILDA                    19380706LC 01444166XXXA000F200000000DESC2007071100000000XX010000      00000000                   SANTA FE                      0112600000             00000000021130015     15413766        000000000000  000000000000             0000000568632             0000000000000000                                       0000000000000000                                       0000000000000000                          0000000000000000
XX100803302374000027-01183621-1MALLO MERCEDES FILOM                    19290906LC 01183621XXXA000F100000000REPA1985010100000000XX010000      00000000                   DERQUI                        0080600000             00000000021130015     420617          000000000000  000000000000             0000000568632             0000000000000000                                       0000000000000000                                       0000000000000000                          0000000000000000
XX301558297427010027-01399532-5YANE BLANCA ESTHER                      19360320DNI01399532XXXA000F300000000REPA1999060100000000XX010000      00000000                   ALVEAR                        0002500000             00000000021130015                     000000000000  000000000000             0000000568632             0000000000000000                                       0000000000000000                                       0000000000000000                          0000000000000000
XX301355408623010027-01399523-6PRIETO ETHEL GLADYS                     19350818DNI01399523XXXA000F300000000REPA1989040100000000XX010000      00000000                   BUCHARD                       0093700000             00000000021130015                     000000000000  000000000000             0000000568632             0000000000000000                                       0000000000000000                                       0000000000000000                          0000000000000000
XX101306072001020027-03249798-0LEGARRETA NELIDA ANA                    19350705LC 03249798XXXA000F200000000REPA1991080100000000XX010000      00000000                   SARMIENTO                     0096600000             00000000021130015                     000000000000  000000000000             0000000568632             0000000000000000                                       0000000000000000                                       0000000000000000                          0000000000000000
XX100400853367030027-00860037-1BLANCO HILDA ELSA                       19390209DNI00860037XXXA000F200000000REPA1982120100000000XX010000      00000000                   PEDRO N. CARRERA              0115800000             00000000021130015                     000000000000  000000000000             0000000568632             0000000000000000                                       0000000000000000                                       0000000000000000                          0000000000000000
XX101504800409040023-06275709-4GARCIA MIRTA CARMEN                     19500822DNI06275709XXXA000F200000000REPA2010102100000000XX010000      00000000                   ROCA                          0027200000             00000000021130015     423125          000000000000  000000000000             0000000568632             0000000000000000                                       0000000000000000                                       0000000000000000                          0000000000000000
XX101305113278000020-05364888-7DUCA ANTONIO                            19350830LE 05364888XXXA000M200000000REPA1985030100000000XX010000      00000000                   ESTRADA                       0089800000             00000000021130015     427754          000000000000  000000000000             0000000568632             0000000000000000                                       0000000000000000                                       0000000000000000                          0000000000000000
XX101503667250020023-03856230-4DI NAPOLI CELIA ELVIRA                  19340128LC 03856230XXXA000F300000000REPA2008061200000000XX010000      00000000                   MALVINAS ARGENTINA            0021900000             00000000021130058     497077          000000000000  000000000000             0000000568632             0000000000000000                                       0000000000000000                                       0000000000000000                          0000000000000000
XX101005387437030020-02654847-1CHEDRESE PEDRO                          19230701LE 02654847XXXA000M200000000REPA1989020100000000XX010000      00000000                   AVENIDA GIRADO                00S/N00000             00000000021130139                     000000000000  000000000000             0000000568632             0000000000000000                                       0000000000000000                                       0000000000000000                          0000000000000000
XX101306127962070027-03574946-8RANZINI NORA EDITH                      19371127LC 03574946XXXA000F200000000REPA1992050100000000XX010000      00000000                   ESTRADA                       0039600000             00000000021130015     433241          000000000000  000000000000             0000000568632             0000000000000000                                       0000000000000000                                       0000000000000000                          0000000000000000
XX101504798924020027-06201105-5HANA MARIA DEL LUJAN                    19500111DNI06201105XXXA000F300000000REPA2010101900000000XX010000      00000000                   ISABEL LA CATOLICA            0017100000             00000000021130015     430025          000000000000  000000000000             0000000568632             0000000000000000                                       0000000000000000                                       0000000000000000                          0000000000000000
XX101409138362030020-10825170-1MOLINA MARIO ALFREDO                    19530808DNI10825170XXXA000M200000000REPA2018101000000000XX010000      00000000                   VIAMONTE                      0098500000             00000000021130015                     000000000000  000000000000             0000000568632             0000000000000000                                       0000000000000000                                       0000000000000000                          0000000000000000
XX101507099271070027-06423255-5ARGENTIERI ISABEL ESTER                 19510125DNI06423255XXXA000F200000000REPA2015090200000000XX010000      00000000                   BELGRANO                      0088000000             000000000211300150298315540972        000000000000  000000000000             0000000568632             0000000000000000                                       0000000000000000                                       0000000000000000                          0000000000000000
XX101504493926010027-06201021-0BIZZA ROSA JUANA                        19490620LC 06201021XXXA000F500000000REPA2010011800000000XX010000      00000000                   HIPOLITO IRIGOYEN             0073500000             00000000021130015     424782          000000000000  000000000000             0000000568632             0000000000000000                                       0000000000000000                                       0000000000000000                          0000000000000000
XX101501072936040020-05376073-3URBIETA JUAN CARLOS                     19400727DNI05376073XXXA000M200000000REPA2005091500000000XX010000      00000000                   CALLE 1810                    0073500000             00000000021130015     422007          000000000000  000000000000             0000000568632             0000000000000000                                       0000000000000000                                       0000000000000000                          0000000000000000
XX101508623296090020-05363982-9VILLA MARIO AGUSTIN                     19350812LE 05363982XXXA000M200000000REPA2002102200000000XX010000      00000000                   SOLIS                         0024500000             00000000021130015     424923          000000000000  000000000000             0000000568632             0000000000000000                                       0000000000000000                                       0000000000000000                          0000000000000000
XX101508857355010023-05173686-9SCAFATI MIGUEL JORGE                    19381116DNI05173686XXXA000M200000000REPA2009021000000000XX010000      00000000                   AVDA SAN MARTIN               0067000000             00000000021130015     432019          000000000000  000000000000             0000000568632             0000000000000000                                       0000000000000000                                       0000000000000000                          0000000000000000
XX301558863236010023-04944533-4GUEVARA NORMA LUCIA                     19441213DNI04944533XXXA000F300000000DESC2004060100000000XX010000      00000000                   9 DE JULIO                    0098000000             00000000021130015                     000000000000  000000000000             0000000568632             0000000000000000                                       0000000000000000                                       0000000000000000                          0000000000000000
XX301559425958090027-04087822-5D'ANGELO MARIA ROSA                     19410323DNI04087822XXXA000F300000000REPA2018101600000000XX010000      00000000                   HIPOLITO IRIGOYEN             0054500000             00000000021130015                     000000000000  000000000000             0000000568632             0000000000000000                                       0000000000000000                                       0000000000000000                          0000000000000000
XX101509335649060020-08114764-8MAYO ARNALDO CARLOS                     19501213DNI08114764XXXA000M200000000REPA2015071400000000XX010000      00000000                   SAAVEDRA                      0152700000             00000000021130015     427166          000000000000  000000000000             0000000568632             0000000000000000                                       0000000000000000                                       0000000000000000                          0000000000000000
XX101506991473000027-06023543-6ALONSO MARTA SUSANA                     19510102DNI06023543XXXA000F200000000REPA2016111500000000XX010000      00000000                   CUARTEL                       0000700000             00000000021130104     15521669        000000000000  000000000000             0000000568632             0000000000000000                                       0000000000000000                                       0000000000000000                          0000000000000000
XX101505376707090027-06423156-7MOSTO ELSA GRACIELA                     19510417DNI06423156XXXA000F200000000REPA2014071000000000XX010000      00000000                   LUCIO V. LOPEZ                0046400000             0000000002113001502983427490          000000000000  000000000000             0000000568632             0000000000000000                                       0000000000000000                                       0000000000000000                          0000000000000000
XX101109632881030020-05358770-5TARQUINUS JOSE                          19320721LE 05358770XXXA000M400000000REPA1994120100000000XX010000      00000000                   ROCA                          0076700000             00000000021130015     452326          000000000000  000000000000             0000000568632             0000000000000000                                       0000000000000000                                       0000000000000000                          0000000000000000
XX101508918873040020-05366756-3LINARES EMILIO ALFREDO                  19360218LE 05366756XXXA000M200000000REPA2004111000000000XX010000      00000000                   B.DE IRIGOYEN                 0005600000             00000000021130015     423437          000000000000  000000000000             0000000568632             0000000000000000                                       0000000000000000                                       0000000000000000                          0000000000000000
XX101508693573010027-04086619-7CIFUENTES ESTHER TERESA                 19420118DNI04086619XXXA000F200000000REPA2009021100000000XX010000      00000000                   AV. GUEMES                    0088300000             00000000021130015                     000000000000  000000000000             0000000568632             0000000000000000                                       0000000000000000                                       0000000000000000                          0000000000000000
XX101501640637080027-03856786-7ALVAREZ CARMEN ANTONIA                  19350709LC 03856786XXXA000F200000000DESC2006112800000000XX010000      00000000                   AV. 15                        0217000000             00000000021130023     02982-480452    000000000000  000000000000             0000000568632             0000000000000000                                       0000000000000000                                       0000000000000000                          0000000000000000
XX101501782073030027-03709534-1SUAREZ NORMA ALCIRA                     19380204DNI03709534XXXA000F100000000DESC2006112100000000XX010000      00000000                   VIAMONTE                      0052300000             00000000021130015     432244          000000000000  000000000000             0000000568632             0000000000000000                                       0000000000000000                                       0000000000000000                          0000000000000000
XX101501329927020027-02893370-9BLANCO OLGA DEL CARMEN                  19390614LC 02893370XXXA000F200000000DESC2006110700000000XX010000      00000000                   BROWN                         0076600000             00000000021130015     429497          000000000000  000000000000             0000000568632             0000000000000000                                       0000000000000000                                       0000000000000000                          0000000000000000
XX101503566231050020-05381286-5CAZEAUX ARMANDO PEDRO                   19420926LE 05381286XXXA000M200000000REPA2008060600000000XX010000      00000000                   LAS HERAS                     0103300000             00000000021130015     426815          000000000000  000000000000             0000000568632             0000000000000000                                       0000000000000000                                       0000000000000000                          0000000000000000
XX101504188104050020-05384049-4COLANTONIO DOMINGO                      19440314LE 05384049XXXA000M200000000REPA2010041200000000XX010000      00000000                   CASEROS                       0250000000             00000000021130015     15418643        000000000000  000000000000             0000000568632             0000000000000000                                       0000000000000000                                       0000000000000000                          0000000000000000
XX301555163919050027-06505217-8LALIA ELSA                              19501201DNI06505217XXXA000F300000000REPA2011112200000000XX010000      00000000                   AV. MORENO                    0096400000             00000000021130015                     000000000000  000000000000             0000000568632             0000000000000000                                       0000000000000000                                       0000000000000000                          0000000000000000
XX101506901841070023-06297130-4PALACIO TERESA JESUS                    19501015DNI06297130XXXA000F200000000REPA2015051900000000XX010000      00000000                   DEAN FUNES                    0013400000             0000000002113001502983426524          000000000000  000000000000             0000000568632             0000000000000000                                       0000000000000000                                       0000000000000000                          0000000000000000
XX101506239156030023-07377563-9MACIEL ANTONIO                          19490106DNI07377563XXXA000M200000000REPA2016111700000000XX010000      00000000                   MORENO                        0011400000             0000000002113001502983430561-557415   000000000000  000000000000             0000000568632             0000000000000000                                       0000000000000000                                       0000000000000000                          0000000000000000
XX101505264108090020-05391637-7DIFONZO RAFAEL ROBERTO                  19461113DNI05391637XXXA000M200000000REPA2012012600000000XX010000      00000000                   LAMADRID                      0086400000             0000000002113001502983433173          000000000000  000000000000             0000000568632             0000000000000000                                       0000000000000000                                       0000000000000000                          0000000000000000
XX301558836758060023-03818058-4SCIPIONI ADELINA ANTONIA                19290618LC 03818058XXXA000F300000000REPA2004030500000000XX010000      00000000                   MORENO                        0062400000             00000000021130015     426497          000000000000  000000000000             0000000568632             0000000000000000                                       0000000000000000                                       0000000000000000                          0000000000000000
XX101508626520050027-04291656-6MENENDEZ ADELA JOSEFA                   19420212LC 04291656XXXA000F400000000REPA2003022500000000XX010000      00000000                   ALVARADO                      0043000000             00000000021130015     429832          000000000000  000000000000             0000000568632             0000000000000000                                       0000000000000000                                       0000000000000000                          0000000000000000
XX101508279902080020-05362744-8RODRIGUEZ JUAN ALBERTO                  19340305LE 05362744XXXA000M200000000REPA1999070100000000XX010000      00000000                   BALCARCE                      0054600000             00000000021130015                     000000000000  000000000000             0000000568632             0000000000000000                                       0000000000000000                                       0000000000000000                          0000000000000000
XX101504796528080020-05388833-0LOPEZ CARLOS ALBERTO                    19450714DNI05388833XXXA000M200000000REPA2011100300000000XX010000      00000000                   12 DE OCTUBRE                 0052400000             00000000021130015     420088          000000000000  000000000000             0000000568632             0000000000000000                                       0000000000000000                                       0000000000000000                          0000000000000000
XX101504800065000027-06201386-4PICONE SILVIA MABEL                     19500520DNI06201386XXXA000F200000000REPA2011051100000000XX010000      00000000                   BRANDSEN                      0066500000             00000000021130015     426168          000000000000  000000000000             0000000568632             0000000000000000                                       0000000000000000                                       0000000000000000                          0000000000000000
XX101503057108010027-04651409-8GOICOECHEA NELIDA ESTER                 19430922LC 04651409XXXA000F200000000DESC2007100200000000XX010000      00000000                   SAAVEDRA                      0104600000             00000000021130015     430937          000000000000  000000000000             0000000568632             0000000000000000                                       0000000000000000                                       0000000000000000                          0000000000000000
XX101503451267070020-05381364-0PAGH RAMON                              19421023DNI05381364XXXA000M700000000DESC2008020700000000XX010000      00000000                   CASEROS                       0065800000             00000000021130015     424653          000000000000  000000000000             0000000568632             0000000000000000                                       0000000000000000                                       0000000000000000                          0000000000000000
XX101507555756000023-08111765-9HARISTOY JUAN CARLOS                    19500620DNI08111765XXXA000M200000000REPA2019120400000000XX010000      00000000                   ESTRADA                       0130600000             00000000021130015                     000000000000  000000000000             0000000568632             0000000000000000                                       0000000000000000                                       0000000000000000                          0000000000000000
XX101506918364000027-10102236-1FERNANDEZ DIANA GRACIELA                19520106DNI10102236XXXA000F600000000REPA2015052700000000XX010000      00000000                   MAIPU                         0064200000             0000000002113001502983427886-559935   000000000000  000000000000             0000000568632             0000000000000000                                       0000000000000000                                       0000000000000000                          0000000000000000
XX101006170728020020-05357506-5MARIUCCI CARLOS MANUE                   19310727DNI05357506XXXA000M100000000REPA1993030100000000XX010000      00000000                   AZCUENAGA                     0035800000             00000000021130015                     000000000000  000000000000             0000000568632             0000000000000000                                       0000000000000000                                       0000000000000000                          0000000000000000
XX101500117518000020-05358740-3LOPEZ ADELQUI AGUSTIN                   19320905LE 05358740XXXA000M200000000REPA1994070100000000XX010000      00000000                   ISTILART                      0062500000             00000000021130015                     000000000000  000000000000             0000000568632             0000000000000000                                       0000000000000000                                       0000000000000000                          0000000000000000
XX101501641549030027-04087693-1TOMALINO MARTA NELIDA                   19410422LC 04087693XXXA000F200000000DESC2006112400000000XX010000      00000000                   HIPOLITO IRIGOYEN             0016200000             00000000021130015     424790          000000000000  000000000000             0000000568632             0000000000000000                                       0000000000000000                                       0000000000000000                          0000000000000000
XX101506880209070020-07381792-8AJA JORGE RAUL                          19491217DNI07381792XXXA000M200000000REPA2015060100000000XX010000      00000000                   ALSINA                        0018600000             0000000002113001502983433502          000000000000  000000000000             0000000568632             0000000000000000                                       0000000000000000                                       0000000000000000                          0000000000000000
XX300953405045010027-06479502-9BELEN MARIA BLANCA                      19251120DNI06479502XXXA000F300000000REPA1989010100000000XX010000      00000000                   CERRITO                       0026200000             00000000021130015                     000000000000  000000000000             0000000568632             0000000000000000                                       0000000000000000                                       0000000000000000                          0000000000000000
XX101508335227000027-01897109-2TORRACA ISABEL                          19290708LC 01897109XXXA000F200000000DESC2000102500000000XX010000      00000000                   AV. GONZALEZ MOSCONI          0089100000             00000000021130015     432334          000000000000  000000000000             0000000568632             0000000000000000                                       0000000000000000                                       0000000000000000                          0000000000000000
XX101501539345010023-03855904-4DE LEO RAFAELA YOLANDA                  19311022DNI03855904XXXA000F200000000DESC2007092400000000XX010000      00000000                   LAPRIDA                       0055400000             0000000002113001502983429373          000000000000  000000000000             0000000568632             0000000000000000                                       0000000000000000                                       0000000000000000                          0000000000000000
XX101504628123030027-06201234-5MARTINEZ ELSA ESTER                     19500202LC 06201234XXXA000F200000000REPA2010061600000000XX010000      00000000                   LAVALLE                       0082100000             00000000021130015     428620          000000000000  000000000000             0000000568632             0000000000000000                                       0000000000000000                                       0000000000000000                          0000000000000000
XX101501490563080027-01399598-8BLANCK GLADIS ALICIA                    19360103DNI01399598XXXA000F200000000DESC2006101000000000XX010000      00000000                   MAIPU                         0089800000             00000000021130015                     000000000000  000000000000             0000000568632             0000000000000000                                       0000000000000000                                       0000000000000000                          0000000000000000
XX101501116333090027-09984301-8ROSSI ELSSA CAROLA                      19420115LC 09984301XXXA000F200000000REPA2007020100000000XX010000      00000000                   MAGALLANES                    0034100000             00000000021130015                     000000000000  000000000000             0000000568632             0000000000000000                                       0000000000000000                                       0000000000000000                          0000000000000000
XX101504092430030027-04567683-3PERALTA ELSA ELENA                      19481012LC 04567683XXXA000F200000000REPA2009100500000000XX010000      00000000                   ISABEL LA CATOLICA            0091500000             00000000021130015     427552          000000000000  000000000000             0000000568632             0000000000000000                                       0000000000000000                                       0000000000000000                          0000000000000000
XX101504408944000027-06201072-5LUNA EVA DEL CARMEN                     19490829LC 06201072XXXA000F200000000REPA2010030200000000XX010000      00000000                   FRENCH                        0082500000             00000000021130015     15445686        000000000000  000000000000             0000000568632             0000000000000000                                       0000000000000000                                       0000000000000000                          0000000000000000
XX101506569401000020-04624165-8KRISTENSEN ROBERTO EMILIO               19480921DNI04624165XXXA000M200000000REPA2015022000000000XX010000      00000000                   HIPOLITO IRIGOYEN             0062500000             000000000211300150298315572525        000000000000  000000000000             0000000568632             0000000000000000                                       0000000000000000                                       0000000000000000                          0000000000000000
XX101508542832090020-05361208-4SALUSTRI ARNOLD MARIO                   19331127DNI05361208XXXA000M300000000REPA2008070800000000XX010000      00000000                   AVDA BELGRANO                 0091600000             00000000021130015     420870          000000000000  000000000000             0000000568632             0000000000000000                                       0000000000000000                                       0000000000000000                          0000000000000000
XX300550520177080023-21604623-4CARO ALEJANDRA PATRICIA                 19700818DNI21604623XXXA000F100000000REPA1989120100000000XX010000      00000000                   FRENCH                        0135000000             00000000021130015                     000000000000  000000000000             0000000568632             0000000000000000                                       0000000000000000                                       0000000000000000                          0000000000000000
XX101503068560050020-05484715-8JACQUEMARD HECTOR JOSE                  19401109DNI05484715XXXA000M600000000DESC2007120700000000XX010000      00000000                   GOMILA                        0031400000             00000000021130015     422511          000000000000  000000000000             0000000568632             0000000000000000                                       0000000000000000                                       0000000000000000                          0000000000000000
XX316271370570560027-13705705-6KLEER GRACIELA HERMINDA                 19600225DNI13705705XXXA000F300000000MAXI1999030100000000XX010000      00000000                   VIAMONTE                      0067000000             00000000021130015                     000000000000  000000000000             0000000568632             0000000000000000                                       0000000000000000                                       0000000000000000                          0000000000000000
XX301551012813010027-00719632-1VERGARA SEFERINA                        19331118LC 00719632XXXA000F300000000DESC2005060200000000XX010000      00000000                   MAGALLANES                    0084500000             00000000021130015     426187          000000000000  000000000000             0000000568632             0000000000000000                                       0000000000000000                                       0000000000000000                          0000000000000000
XX300150176322060027-02357392-5TRAVELLA RAQUEL RAMONA OL               19361201LC 02357392XXXA000F300000000REPA1979100100000000XX010000      00000000                   ROCHA                         0010800000             00000000021130015     429276          000000000000  000000000000             0000000568632             0000000000000000                                       0000000000000000                                       0000000000000000                          0000000000000000
XX301558744966090027-03855470-6GARCIA ALCIRA SERAFINA                  19310818DNI03855470XXXA000F300000000REPA2005081200000000XX010000      00000000                   MORENO                        0018200000             00000000021130015                     000000000000  000000000000             0000000568632             0000000000000000                                       0000000000000000                                       0000000000000000                          0000000000000000
XX101504292022070020-05385619-6DE FRANCESCO JUAN CARLOS                19440704LE 05385619XXXA000M200000000REPA2009102200000000XX010000      00000000                   SAAVEDRA                      0010200000             00000000021130015     422434          000000000000  000000000000             0000000568632             0000000000000000                                       0000000000000000                                       0000000000000000                          0000000000000000
XX101501323219090027-04651481-0GARCIA ESTER                            19440427DNI04651481XXXA000F100000000DESC2006071200000000XX010000      00000000                   DEAN FUNES                    0074000000             00000000021130015                     000000000000  000000000000             0000000568632             0000000000000000                                       0000000000000000                                       0000000000000000                          0000000000000000
XX101503052959010020-05481254-0ANTUÑANO ANGEL AMERICO                  19391012DNI05481254XXXA000M200000000DESC2007091100000000XX010000      00000000                   SAN MARTIN                    0066300000             00000000021130015     423951          000000000000  000000000000             0000000568632             0000000000000000                                       0000000000000000                                       0000000000000000                          0000000000000000
XX301558182330080023-05388089-4MONJEZ ELENA ESTER                      19461024LC 05388089XXXA000F300000000REPA1997120100000000XX010000      00000000                   DERQUI                        0082600000             00000000021130015                     000000000000  000000000000             0000000568632             0000000000000000                                       0000000000000000                                       0000000000000000                          0000000000000000
XX101503034724000020-05376958-7MASSIGOGE LUIS MARIA                    19401118DNI05376958XXXA000M200000000DESC2007072300000000XX010000      00000000                   VIAMONTE                      0016600000             00000000021130015     420464          000000000000  000000000000             0000000568632             0000000000000000                                       0000000000000000                                       0000000000000000                          0000000000000000
XX101503845281050027-05901646-1TORMES MIRTA CRISTINA                   19480825LC 05901646XXXA000F200000000REPA2008120400000000XX010000      00000000                   BUCHARDO                      0045500000             00000000021130015     420717          000000000000  000000000000             0000000568632             0000000000000000                                       0000000000000000                                       0000000000000000                          0000000000000000
XX101503181261060027-05104325-7BERNARDI NOEMI MAFALDA                  19450530LC 05104325XXXA000F700000000ORIG2009010100000000XX010000      00000000                   PUEYRREDON                    0052200000             00000000021130015     423629          000000000000  000000000000             0000000568632             0000000000000000                                       0000000000000000                                       0000000000000000                          0000000000000000
XX301556800773010027-06201365-1CAÑUETO SUSANA BEATRIZ                  19501009DNI06201365XXXA000F300000000REPA2016081800000000XX010000      00000000                   VIAMONTE                      0029800000             000000000211300150298315649587        000000000000  000000000000             0000000568632             0000000000000000                                       0000000000000000                                       0000000000000000                          0000000000000000
XX101509764718080027-12940587-8NAPOLI MONICA BEATRIZ LUCIA             19570403DNI12940587XXXA000F200000000REPA2018010900000000XX010000      00000000                   OLIVERO DUGGAN                0067500000             00000000021130015                     000000000000  000000000000             0000000568632             0000000000000000                                       0000000000000000                                       0000000000000000                          0000000000000000
XX101503642039010027-05639042-7BALON SARA ELOISA                       19470419LC 05639042XXXA000F200000000REPA2008071400000000XX010000      00000000                   PEDRO N CARRERA               0086700000             00000000021130015     425146          000000000000  000000000000             0000000568632             0000000000000000                                       0000000000000000                                       0000000000000000                          0000000000000000
XX101509778324060027-12940066-3CORTESE MIRTA SUSANA                    19570211DNI12940066XXXA000F600000000REPA2018020200000000XX010000      00000000                   MAIPU                         0099700000             00000000021130015                     000000000000  000000000000             0000000568632             0000000000000000                                       0000000000000000                                       0000000000000000                          0000000000000000
XX101503606780040023-05388366-4PRIGIONE ANA MARIA                      19461218LC 05388366XXXA000F200000000REPA2008052200000000XX010000      00000000                   ISTILART                      0004300000             00000000021130015     15641685        000000000000  000000000000             0000000568632             0000000000000000                                       0000000000000000                                       0000000000000000                          0000000000000000
XX101501253370010027-04501472-5CATTANIO LIDIA ELENA                    19430406DNI04501472XXXA000F200000000DESC2006052400000000XX010000      00000000                   DEAN FUNES                    0065400000             00000000021130015                     000000000000  000000000000             0000000568632             0000000000000000                                       0000000000000000                                       0000000000000000                          0000000000000000
XX101503879126030027-05388252-3ERNETA MARTA SUSANA                     19470220LC 05388252XXXA000F200000000REPA2008122200000000XX010000      00000000                   OLIVERO DUGGAN                0220000000             00000000021130015     15410446        000000000000  000000000000             0000000568632             0000000000000000                                       0000000000000000                                       0000000000000000                          0000000000000000
XX101502379253010027-03492369-3ITURRALDE GLADYS YOLANDA                19370213DNI03492369XXXA000F200000000DESC2007032800000000XX010000      00000000                   SADI CARNOT                   0065500000             00000000021130015     420663          000000000000  000000000000             0000000568632             0000000000000000                                       0000000000000000                                       0000000000000000                          0000000000000000
XX101501289893010027-04501403-2PAZ HAYDEE LEONOR                       19420929LC 04501403XXXA000F200000000DESC2006062200000000XX010000      00000000                   MAR DEL PLATA                 0025200000             00000000021130015     428623          000000000000  000000000000             0000000568632             0000000000000000                                       0000000000000000                                       0000000000000000                          0000000000000000
XX101501373769090027-04824008-4ESPADA NILDA ASUNCION                   19440611LC 04824008XXXA000F200000000NACI2009010100000000XX010000      00000000                   LINIERS                       0077400000             00000000021130015     15561952        000000000000  000000000000             0000000568632             0000000000000000                                       0000000000000000                                       0000000000000000                          0000000000000000
XX101501202124080020-05376082-2MAURETTE ROBERTO OSVALDO                19400815LE 05376082XXXA000M200000000DESC2006032800000000XX010000      00000000                   BUCHARDO                      0033500000             00000000021130015     422863          000000000000  000000000000             0000000568632             0000000000000000                                       0000000000000000                                       0000000000000000                          0000000000000000
XX301558779004010027-02798706-6SABATINI SONIA                          19321016LC 02798706XXXA000F300000000REPA2003100600000000XX010000      00000000                   ALSINA                        0015700000             00000000021130015     423303          000000000000  000000000000             0000000568632             0000000000000000                                       0000000000000000                                       0000000000000000                          0000000000000000
XX101506304490020027-10816375-0MARINA MARIA INES                       19530725DNI10816375XXXA000F600000000REPA2018011100000000XX010000      00000000                   OLAVARRIA                     0017500000             00000000021130015                     000000000000  000000000000             0000000568632             0000000000000000                                       0000000000000000                                       0000000000000000                          0000000000000000
XX101501503146050027-04410425-9RULLI NILDA MABEL                       19411031LC 04410425XXXA000F200000000DESC2006112900000000XX010000      00000000                   CALLE 1810                    0064500000             00000000021130015     423657          000000000000  000000000000             0000000568632             0000000000000000                                       0000000000000000                                       0000000000000000                          0000000000000000
XX100609475364020023-03249891-4MEDER ROSA                              19351015LC 03249891XXXA000F200000000REPA1991040100000000XX010000      00000000                   GRAL. SPORA Y 25 DE MAYO      0000000000             00000000021130112                     000000000000  000000000000             0000000568632             0000000000000000                                       0000000000000000                                       0000000000000000                          0000000000000000
XX301551113927010027-05658726-3MARCOS MARGARITA INES                   19471015LC 05658726XXXA000F300000000DESC2006030600000000XX010000      00000000                   ROQUE SAENZ PEÑA              0002500000             00000000021130112     420-012         000000000000  000000000000             0000000568632             0000000000000000                                       0000000000000000                                       0000000000000000                          0000000000000000
XX100609352683000020-04988430-4DIFONZO JORGE OMAR                      19480728DNI04988430XXXA000M200000000REPA1990040100000000XX010000      00000000                   BENITO MACHADO                0007700000             00000000021130015     431066          000000000000  000000000000             0000000568632             0000000000000000                                       0000000000000000                                       0000000000000000                          0000000000000000
XX301558081481000027-06201275-2ROLANDI MARIA INES                      19500412DNI06201275XXXA000F300000000REPA1998040100000000XX010000      00000000                   PELLEGRINI                    0018500000             00000000021130015                     000000000000  000000000000             0000000568632             0000000000000000                                       0000000000000000                                       0000000000000000                          0000000000000000
XX316209370085711620-26709683-0LLOPIS DURANDO RAMIRO                   19781002DNI26709683XXXA000M100000000NACI2002121600000000XX010000      00000000                   BERUTTI                       0055000000             00000000021130015     428884          000000000000  000000000000             0000000568632             0000000000000000                                       0000000000000000                                       0000000000000000                          0000000000000000
XX101306201572060020-93234415-8LAZZARO VICENTE                         19350414DNI93234415XXXN000M200000000REPA1994090100000000XX010000      00000000                   ISTILART                      0103400000             00000000021130015                     000000000000  000000000000             0000000568632             0000000000000000                                       0000000000000000                                       0000000000000000                          0000000000000000
XX101502738797060027-05104375-3LAURIA MABEL MIRTA                      19450511LC 05104375XXXA000F200000000REPA2009043000000000XX010000      00000000                   COSTA                         0055500000             00000000021130015     423007          000000000000  000000000000             0000000568632             0000000000000000                                       0000000000000000                                       0000000000000000                          0000000000000000
XX101502314151040027-04944567-4RODRIGUEZ LUCIA ELENA                   19441213LC 04944567XXXA000F500000000DESC2007022000000000XX010000      00000000                   RECONQUISTA                   0044300000             00000000021130015     420148          000000000000  000000000000             0000000568632             0000000000000000                                       0000000000000000                                       0000000000000000                          0000000000000000
XX101508105356090020-05351843-6TRAVERSA HUGO JOSE                      19290429LE 05351843XXXA000M100000000REPA1996060100000000XX010000      00000000                   OLAVARRIA                     0046700000             00000000021130015                     000000000000  000000000000             0000000568632             0000000000000000                                       0000000000000000                                       0000000000000000                          0000000000000000
XX101504200549090027-05901612-7DAMICO DELIA ANGELA                     19480720LC 05901612XXXA000F200000000REPA2009081400000000XX010000      00000000                   DOMINGO VAZQUEZ               0014000000             00000000021130015     422572          000000000000  000000000000             0000000568632             0000000000000000                                       0000000000000000                                       0000000000000000                          0000000000000000
XX101504692797090027-93177646-6LOPEZ GINER MARIA TERESA MILAGROS       19460817DNI93177646XXXN000F200000000REPA2010080900000000XX010000      00000000                   MORENO                        0011400000             00000000021130015     430638          000000000000  000000000000             0000000568632             0000000000000000                                       0000000000000000                                       0000000000000000                          0000000000000000
XX101503357933030027-05090536-0ACERBONI LAURA JACINTA                  19450810LC 05090536XXXA000F200000000REPA2008040800000000XX010000      00000000                   9 DE JULIO                    0001400000             0000000002113001502983427375          000000000000  000000000000             0000000568632             0000000000000000                                       0000000000000000                                       0000000000000000                          0000000000000000
XX101500213058090020-05361230-0RAMOS AMEL                              19331215DNI05361230XXXA000M200000000REPA1995010100000000XX010000      00000000                   MAZZINI                       0023500000             00000000021130015                     000000000000  000000000000             0000000568632             0000000000000000                                       0000000000000000                                       0000000000000000                          0000000000000000
XX101508728466070023-04501444-4DI CROCE MARTA ANGELA                   19421201DNI04501444XXXA000F200000000REPA2011020200000000XX010000      00000000                   PRINGLES                      0016000000             00000000021130015     427267          000000000000  000000000000             0000000568632             0000000000000000                                       0000000000000000                                       0000000000000000                          0000000000000000
XX101501290734080027-03496663-5MANCINO LINA ROSA                       19390517LC 03496663XXXA000F200000000DESC2006062300000000XX010000      00000000                   PELLEGRINI                    0054600000             00000000021130015     422593          000000000000  000000000000             0000000568632             0000000000000000                                       0000000000000000                                       0000000000000000                          0000000000000000
XX301558872871080023-02937293-4SALOMON NELIDA ESTHER                   19340923DNI02937293XXXA000F300000000DESC2004061500000000XX010000      00000000                   RODRIGUEZ PEÑA                0088300000             00000000021130015                     000000000000  000000000000             0000000568632             0000000000000000                                       0000000000000000                                       0000000000000000                          0000000000000000
XX101501407949090120-11843753-6CRANCA AMADEO JOSE                      19580112DNI11843753XXXA000M200000000DESC2006081600000000XX010000      00000000                   25 DE MAYO                    0104500000             00000000021130015     420332          000000000000  000000000000             0000000568632             0000000000000000                                       0000000000000000                                       0000000000000000                          0000000000000000
XX101504900060030027-06150058-3HUTH ELSA GREGORIA                      19500612LC 06150058XXXA000F200000000REPA2011020900000000XX010000      00000000                   SECCION QUINTAS               0000000000             00000000021130112     15460370        000000000000  000000000000             0000000568632             0000000000000000                                       0000000000000000                                       0000000000000000                          0000000000000000
XX101505368865010020-05389708-9CHAMUS JULIO ALBERTO                    19451213LE 05389708XXXA000M200000000REPA2012052800000000XX010000      00000000                   COLON                         0109700000             00000000021130015     427041          000000000000  000000000000             0000000568632             0000000000000000                                       0000000000000000                                       0000000000000000                          0000000000000000
XX101501864340010027-03834680-1OTERO OLGA TERESA                       19281017DNI03834680XXXA000F200000000DESC2007031300000000XX010000      00000000                   SARMIENTO                     0127500000             00000000021130015     426419          000000000000  000000000000             0000000568632             0000000000000000                                       0000000000000000                                       0000000000000000                          0000000000000000
XX101503063990010020-05387197-7FRUGNALE CARLOS NICOLAS                 19450405LE 05387197XXXA000M200000000DESC2007072000000000XX010000      00000000                   MAGALLANES                    0025100000             00000000021130015     428013          000000000000  000000000000             0000000568632             0000000000000000                                       0000000000000000                                       0000000000000000                          0000000000000000
XX100101012611000020-04080617-3FIORDA MIGUEL ANGEL                     19320201LE 04080617XXXA000M200000000REPA1991110100000000XX010000      00000000                   HUMBERTO                      0057700000             00000000021130015     431960          000000000000  000000000000             0000000568632             0000000000000000                                       0000000000000000                                       0000000000000000                          0000000000000000
XX101505447804030023-06380346-4ULLUA MIRTA EDITH                       19510203LC 06380346XXXA000F200000000REPA2012083100000000XX010000      00000000                   COLON                         0061600000             0000000002113001502983428916          000000000000  000000000000             0000000568632             0000000000000000                                       0000000000000000                                       0000000000000000                          0000000000000000
XX101508928284030020-05373864-9CORTES RICARDO ALFREDO                  19390223DNI05373864XXXA000M200000000REPA2004111100000000XX010000      00000000                   BROWM                         0044500000             00000000021130015                     000000000000  000000000000             0000000568632             0000000000000000                                       0000000000000000                                       0000000000000000                          0000000000000000
XX101503030849000020-05387681-2GONZALEZ PEDRO SEBASTIAN                19450206LE 05387681XXXA000M200000000DESC2007091300000000XX010000      00000000                   SANTIAGO DEL ESTERO           0073600000             00000000021130015     15578589        000000000000  000000000000             0000000568632             0000000000000000                                       0000000000000000                                       0000000000000000                          0000000000000000
XX101503167246060027-05388076-8RAMPOLDI MARIA GRACIELA                 19460711LC 05388076XXXA000F200000000REPA2013031200000000XX010000      00000000                   FALUCHO                       0035000000             0000000002113001502983426276          000000000000  000000000000             0000000568632             0000000000000000                                       0000000000000000                                       0000000000000000                          0000000000000000
XX101501557838050027-03799827-9TABOADA ALCIRA IRMA                     19400214LC 03799827XXXA000F200000000DESC2007020100000000XX010000      00000000                   LAMADRID                      0119700000             00000000021130015     15501574        000000000000  000000000000             0000000568632             0000000000000000                                       0000000000000000                                       0000000000000000                          0000000000000000
XX101400117947000027-12940407-3CORRALES ADRIANA EVA                    19590318DNI12940407XXXA000F200000000REPA2019080100000000XX010000      00000000                   SAN MARTIN                    0021600000             00000000021130015                     000000000000  000000000000             0000000568632             0000000000000000                                       0000000000000000                                       0000000000000000                          0000000000000000
XX301553618118030027-11043862-7DI MECO MARIA MONICA                    19531118DNI11043862XXXA000F300000000REPA2008051500000000XX010000      00000000                   LINIERS                       0003400000             00000000021130015     15502695        000000000000  000000000000             0000000568632             0000000000000000                                       0000000000000000                                       0000000000000000                          0000000000000000
XX101006118858040027-03823613-5IRIGOYEN LILIA ETHEL                    19300729DNI03823613XXXA000F300000000REPA1996060100000000XX010000      00000000                   GOMILA                        0048700000             000000000211300150298315527297        000000000000  000000000000             0000000568632             0000000000000000                                       0000000000000000                                       0000000000000000                          0000000000000000
XX101508734513000027-14527714-6GARCIA NORA ARACELI                     19620319DNI14527714XXXA000F300000000REPA2003070800000000XX010000      00000000                   MATHEU                        0155300000             00000000021130015                     000000000000  000000000000             0000000568632             0000000000000000                                       0000000000000000                                       0000000000000000                          0000000000000000
XX101306063071020027-01183607-6SCARABOTTI ADELA ROSA                   19270618LC 01183607XXXA000F300000000REPA2001032700000000XX010000      00000000                   QUINTANA                      0056400000             00000000021130015     426844          000000000000  000000000000             0000000568632             0000000000000000                                       0000000000000000                                       0000000000000000                          0000000000000000
XX101501642680070027-04291618-3ARANA MARIA LUISA                       19420213DNI04291618XXXA000F200000000DESC2007021600000000XX010000      00000000                   MAR DEL PLATA                 0083500000             00000000021130015     430318          000000000000  000000000000             0000000568632             0000000000000000                                       0000000000000000                                       0000000000000000                          0000000000000000
XX101400076767060027-12940004-3DOUMECQ MARIANA                         19590205DNI12940004XXXA000F200000000REPA2019073000000000XX010000      00000000                   CHACABUCO                     0006000000             00000000021130015                     000000000000  000000000000             0000000568632             0000000000000000                                       0000000000000000                                       0000000000000000                          0000000000000000
XX101508999246020023-05388383-4CORDIDO OLGA IRIS                       19470221LC 05388383XXXA000F200000000DESC2005070800000000XX010000      00000000                   GARIBALDI                     0032400000             00000000021130015     15642559        000000000000  000000000000             0000000568632             0000000000000000                                       0000000000000000                                       0000000000000000                          0000000000000000
XX101503016063030020-05349645-9ETCHEVERRY NESTOR FERMIN                19290607DNI05349645XXXA000M200000000DESC2007070400000000XX010000      00000000                   SOLIS                         0056000000             00000000021130015     424860          000000000000  000000000000             0000000568632             0000000000000000                                       0000000000000000                                       0000000000000000                          0000000000000000
XX101501044287030027-02357279-1MASCIOLI ROSA MATILDE                   19360920LC 02357279XXXA000F200000000REPA2005071500000000XX010000      00000000                   LARREA                        0056100000             00000000021130015     425275          000000000000  000000000000             0000000568632             0000000000000000                                       0000000000000000                                       0000000000000000                          0000000000000000
XX101507582163010020-07835054-8INSUA RAUL OSCAR                        19500311DNI07835054XXXA000M200000000REPA2017080900000000XX010000      00000000                   SAAVEDRA                      0062000000             00000000021130015                     000000000000  000000000000             0000000568632             0000000000000000                                       0000000000000000                                       0000000000000000                          0000000000000000
XX101504143329010023-05765519-4RODERA MARIA TERESA                     19481221DNI05765519XXXA000F200000000REPA2009070700000000XX010000      00000000                   COLON                         0018400000             00000000021130015     427188          000000000000  000000000000             0000000568632             0000000000000000                                       0000000000000000                                       0000000000000000                          0000000000000000
XX101509645176090020-12591320-3DANNUNZIO RUBEN VICENTE                 19561006DNI12591320XXXA000M200000000REPA2017092200000000XX010000      00000000                   ALSINA                        0074200000             00000000021130015                     000000000000  000000000000             0000000568632             0000000000000000                                       0000000000000000                                       0000000000000000                          0000000000000000
XX100101063043010020-05355439-4ROLDAN MATEO NOEL                       19331024DNI05355439XXXA000M200000000REPA1994070100000000XX010000      00000000                   BROWN                         0003600000             00000000021130112                     000000000000  000000000000             0000000568632             0000000000000000                                       0000000000000000                                       0000000000000000                          0000000000000000
XX101508819539070020-93907309-5COFONE GIUSEPPE ANGELO                  19381104DNI93907309XXXN000M200000000DESC2004011200000000XX010000      00000000                   PRINGLES                      0006900000             00000000021130015     431675          000000000000  000000000000             0000000568632             0000000000000000                                       0000000000000000                                       0000000000000000                          0000000000000000
